{
  "contractName": "MyNFTs",
  "abi": [
    {
      "inputs": [],
      "stateMutability": "nonpayable",
      "type": "constructor"
    },
    {
      "anonymous": false,
      "inputs": [
        {
          "indexed": true,
          "internalType": "address",
          "name": "owner",
          "type": "address"
        },
        {
          "indexed": true,
          "internalType": "address",
          "name": "approved",
          "type": "address"
        },
        {
          "indexed": true,
          "internalType": "uint256",
          "name": "tokenId",
          "type": "uint256"
        }
      ],
      "name": "Approval",
      "type": "event"
    },
    {
      "anonymous": false,
      "inputs": [
        {
          "indexed": true,
          "internalType": "address",
          "name": "owner",
          "type": "address"
        },
        {
          "indexed": true,
          "internalType": "address",
          "name": "operator",
          "type": "address"
        },
        {
          "indexed": false,
          "internalType": "bool",
          "name": "approved",
          "type": "bool"
        }
      ],
      "name": "ApprovalForAll",
      "type": "event"
    },
    {
      "anonymous": false,
      "inputs": [
        {
          "indexed": true,
          "internalType": "address",
          "name": "previousOwner",
          "type": "address"
        },
        {
          "indexed": true,
          "internalType": "address",
          "name": "newOwner",
          "type": "address"
        }
      ],
      "name": "OwnershipTransferred",
      "type": "event"
    },
    {
      "anonymous": false,
      "inputs": [
        {
          "indexed": true,
          "internalType": "address",
          "name": "from",
          "type": "address"
        },
        {
          "indexed": true,
          "internalType": "address",
          "name": "to",
          "type": "address"
        },
        {
          "indexed": true,
          "internalType": "uint256",
          "name": "tokenId",
          "type": "uint256"
        }
      ],
      "name": "Transfer",
      "type": "event"
    },
    {
      "inputs": [
        {
          "internalType": "address",
          "name": "to",
          "type": "address"
        },
        {
          "internalType": "uint256",
          "name": "tokenId",
          "type": "uint256"
        }
      ],
      "name": "approve",
      "outputs": [],
      "stateMutability": "nonpayable",
      "type": "function"
    },
    {
      "inputs": [
        {
          "internalType": "address",
          "name": "owner",
          "type": "address"
        }
      ],
      "name": "balanceOf",
      "outputs": [
        {
          "internalType": "uint256",
          "name": "",
          "type": "uint256"
        }
      ],
      "stateMutability": "view",
      "type": "function",
      "constant": true
    },
    {
      "inputs": [
        {
          "internalType": "uint256",
          "name": "tokenId",
          "type": "uint256"
        }
      ],
      "name": "getApproved",
      "outputs": [
        {
          "internalType": "address",
          "name": "",
          "type": "address"
        }
      ],
      "stateMutability": "view",
      "type": "function",
      "constant": true
    },
    {
      "inputs": [
        {
          "internalType": "address",
          "name": "owner",
          "type": "address"
        },
        {
          "internalType": "address",
          "name": "operator",
          "type": "address"
        }
      ],
      "name": "isApprovedForAll",
      "outputs": [
        {
          "internalType": "bool",
          "name": "",
          "type": "bool"
        }
      ],
      "stateMutability": "view",
      "type": "function",
      "constant": true
    },
    {
      "inputs": [],
      "name": "name",
      "outputs": [
        {
          "internalType": "string",
          "name": "",
          "type": "string"
        }
      ],
      "stateMutability": "view",
      "type": "function",
      "constant": true
    },
    {
      "inputs": [],
      "name": "owner",
      "outputs": [
        {
          "internalType": "address",
          "name": "",
          "type": "address"
        }
      ],
      "stateMutability": "view",
      "type": "function",
      "constant": true
    },
    {
      "inputs": [
        {
          "internalType": "uint256",
          "name": "tokenId",
          "type": "uint256"
        }
      ],
      "name": "ownerOf",
      "outputs": [
        {
          "internalType": "address",
          "name": "",
          "type": "address"
        }
      ],
      "stateMutability": "view",
      "type": "function",
      "constant": true
    },
    {
      "inputs": [],
      "name": "renounceOwnership",
      "outputs": [],
      "stateMutability": "nonpayable",
      "type": "function"
    },
    {
      "inputs": [
        {
          "internalType": "address",
          "name": "from",
          "type": "address"
        },
        {
          "internalType": "address",
          "name": "to",
          "type": "address"
        },
        {
          "internalType": "uint256",
          "name": "tokenId",
          "type": "uint256"
        }
      ],
      "name": "safeTransferFrom",
      "outputs": [],
      "stateMutability": "nonpayable",
      "type": "function"
    },
    {
      "inputs": [
        {
          "internalType": "address",
          "name": "from",
          "type": "address"
        },
        {
          "internalType": "address",
          "name": "to",
          "type": "address"
        },
        {
          "internalType": "uint256",
          "name": "tokenId",
          "type": "uint256"
        },
        {
          "internalType": "bytes",
          "name": "data",
          "type": "bytes"
        }
      ],
      "name": "safeTransferFrom",
      "outputs": [],
      "stateMutability": "nonpayable",
      "type": "function"
    },
    {
      "inputs": [
        {
          "internalType": "address",
          "name": "operator",
          "type": "address"
        },
        {
          "internalType": "bool",
          "name": "approved",
          "type": "bool"
        }
      ],
      "name": "setApprovalForAll",
      "outputs": [],
      "stateMutability": "nonpayable",
      "type": "function"
    },
    {
      "inputs": [
        {
          "internalType": "bytes4",
          "name": "interfaceId",
          "type": "bytes4"
        }
      ],
      "name": "supportsInterface",
      "outputs": [
        {
          "internalType": "bool",
          "name": "",
          "type": "bool"
        }
      ],
      "stateMutability": "view",
      "type": "function",
      "constant": true
    },
    {
      "inputs": [],
      "name": "symbol",
      "outputs": [
        {
          "internalType": "string",
          "name": "",
          "type": "string"
        }
      ],
      "stateMutability": "view",
      "type": "function",
      "constant": true
    },
    {
      "inputs": [
        {
          "internalType": "uint256",
          "name": "tokenId",
          "type": "uint256"
        }
      ],
      "name": "tokenURI",
      "outputs": [
        {
          "internalType": "string",
          "name": "",
          "type": "string"
        }
      ],
      "stateMutability": "view",
      "type": "function",
      "constant": true
    },
    {
      "inputs": [
        {
          "internalType": "address",
          "name": "from",
          "type": "address"
        },
        {
          "internalType": "address",
          "name": "to",
          "type": "address"
        },
        {
          "internalType": "uint256",
          "name": "tokenId",
          "type": "uint256"
        }
      ],
      "name": "transferFrom",
      "outputs": [],
      "stateMutability": "nonpayable",
      "type": "function"
    },
    {
      "inputs": [
        {
          "internalType": "address",
          "name": "newOwner",
          "type": "address"
        }
      ],
      "name": "transferOwnership",
      "outputs": [],
      "stateMutability": "nonpayable",
      "type": "function"
    },
    {
      "inputs": [
        {
          "internalType": "address",
          "name": "recipient",
          "type": "address"
        },
        {
          "internalType": "string",
          "name": "tokenURI",
          "type": "string"
        }
      ],
      "name": "mintNFT",
      "outputs": [
        {
          "internalType": "uint256",
          "name": "",
          "type": "uint256"
        }
      ],
      "stateMutability": "nonpayable",
      "type": "function"
    },
    {
      "inputs": [
        {
          "internalType": "address",
          "name": "tokenAddress",
          "type": "address"
        }
      ],
      "name": "setToken",
      "outputs": [
        {
          "internalType": "bool",
          "name": "",
          "type": "bool"
        }
      ],
      "stateMutability": "nonpayable",
      "type": "function"
    },
    {
      "inputs": [
        {
          "internalType": "uint256",
          "name": "value",
          "type": "uint256"
        }
      ],
      "name": "setNftPrice",
      "outputs": [
        {
          "internalType": "bool",
          "name": "",
          "type": "bool"
        }
      ],
      "stateMutability": "nonpayable",
      "type": "function"
    },
    {
      "inputs": [],
      "name": "getNftPrice",
      "outputs": [
        {
          "internalType": "uint256",
          "name": "",
          "type": "uint256"
        }
      ],
      "stateMutability": "nonpayable",
      "type": "function"
    }
  ],
  "bytecode": "0x60806040523480156200001157600080fd5b506040518060400160405280600681526020017f4d794e46547300000000000000000000000000000000000000000000000000008152506040518060400160405280600481526020017f4d4e465400000000000000000000000000000000000000000000000000000000815250816000908051906020019062000096929190620001b6565b508060019080519060200190620000af929190620001b6565b505050620000d2620000c6620000e860201b60201c565b620000f060201b60201c565b68056bc75e2d63100000600a81905550620002cb565b600033905090565b6000600760009054906101000a900473ffffffffffffffffffffffffffffffffffffffff16905081600760006101000a81548173ffffffffffffffffffffffffffffffffffffffff021916908373ffffffffffffffffffffffffffffffffffffffff1602179055508173ffffffffffffffffffffffffffffffffffffffff168173ffffffffffffffffffffffffffffffffffffffff167f8be0079c531659141344cd1fd0a4f28419497f9722a3daafe3b4186f6b6457e060405160405180910390a35050565b828054620001c49062000266565b90600052602060002090601f016020900481019282620001e8576000855562000234565b82601f106200020357805160ff191683800117855562000234565b8280016001018555821562000234579182015b828111156200023357825182559160200191906001019062000216565b5b50905062000243919062000247565b5090565b5b808211156200026257600081600090555060010162000248565b5090565b600060028204905060018216806200027f57607f821691505b602082108114156200029657620002956200029c565b5b50919050565b7f4e487b7100000000000000000000000000000000000000000000000000000000600052602260045260246000fd5b61316980620002db6000396000f3fe608060405234801561001057600080fd5b506004361061012c5760003560e01c80637d9a7a4c116100ad578063c491277411610071578063c491277414610341578063c87b56dd1461035f578063e985e9c51461038f578063eacabe14146103bf578063f2fde38b146103ef5761012c565b80637d9a7a4c1461029d5780638da5cb5b146102cd57806395d89b41146102eb578063a22cb46514610309578063b88d4fde146103255761012c565b806323b872dd116100f457806323b872dd146101fb57806342842e0e146102175780636352211e1461023357806370a0823114610263578063715018a6146102935761012c565b806301ffc9a71461013157806306fdde0314610161578063081812fc1461017f578063095ea7b3146101af578063144fa6d7146101cb575b600080fd5b61014b600480360381019061014691906123ad565b61040b565b60405161015891906127dd565b60405180910390f35b6101696104ed565b60405161017691906127f8565b60405180910390f35b61019960048036038101906101949190612407565b61057f565b6040516101a6919061273f565b60405180910390f35b6101c960048036038101906101c49190612340565b6105c5565b005b6101e560048036038101906101e09190612161565b6106dd565b6040516101f291906127dd565b60405180910390f35b610215600480360381019061021091906121ce565b61076b565b005b610231600480360381019061022c91906121ce565b6107cb565b005b61024d60048036038101906102489190612407565b6107eb565b60405161025a919061273f565b60405180910390f35b61027d60048036038101906102789190612161565b610872565b60405161028a91906129da565b60405180910390f35b61029b61092a565b005b6102b760048036038101906102b29190612407565b61093e565b6040516102c491906127dd565b60405180910390f35b6102d5610958565b6040516102e2919061273f565b60405180910390f35b6102f3610982565b60405161030091906127f8565b60405180910390f35b610323600480360381019061031e91906122a4565b610a14565b005b61033f600480360381019061033a9190612221565b610a2a565b005b610349610a8c565b60405161035691906129da565b60405180910390f35b61037960048036038101906103749190612407565b610a9e565b60405161038691906127f8565b60405180910390f35b6103a960048036038101906103a4919061218e565b610bb1565b6040516103b691906127dd565b60405180910390f35b6103d960048036038101906103d491906122e4565b610c45565b6040516103e691906129da565b60405180910390f35b61040960048036038101906104049190612161565b610df1565b005b60007f80ac58cd000000000000000000000000000000000000000000000000000000007bffffffffffffffffffffffffffffffffffffffffffffffffffffffff1916827bffffffffffffffffffffffffffffffffffffffffffffffffffffffff191614806104d657507f5b5e139f000000000000000000000000000000000000000000000000000000007bffffffffffffffffffffffffffffffffffffffffffffffffffffffff1916827bffffffffffffffffffffffffffffffffffffffffffffffffffffffff1916145b806104e657506104e582610e75565b5b9050919050565b6060600080546104fc90612bff565b80601f016020809104026020016040519081016040528092919081815260200182805461052890612bff565b80156105755780601f1061054a57610100808354040283529160200191610575565b820191906000526020600020905b81548152906001019060200180831161055857829003601f168201915b5050505050905090565b600061058a82610edf565b6004600083815260200190815260200160002060009054906101000a900473ffffffffffffffffffffffffffffffffffffffff169050919050565b60006105d0826107eb565b90508073ffffffffffffffffffffffffffffffffffffffff168373ffffffffffffffffffffffffffffffffffffffff161415610641576040517f08c379a00000000000000000000000000000000000000000000000000000000081526004016106389061299a565b60405180910390fd5b8073ffffffffffffffffffffffffffffffffffffffff16610660610f2a565b73ffffffffffffffffffffffffffffffffffffffff16148061068f575061068e81610689610f2a565b610bb1565b5b6106ce576040517f08c379a00000000000000000000000000000000000000000000000000000000081526004016106c5906129ba565b60405180910390fd5b6106d88383610f32565b505050565b60006106e7610feb565b600073ffffffffffffffffffffffffffffffffffffffff168273ffffffffffffffffffffffffffffffffffffffff16141561072157600080fd5b81600960006101000a81548173ffffffffffffffffffffffffffffffffffffffff021916908373ffffffffffffffffffffffffffffffffffffffff16021790555060019050919050565b61077c610776610f2a565b82611069565b6107bb576040517f08c379a00000000000000000000000000000000000000000000000000000000081526004016107b29061281a565b60405180910390fd5b6107c68383836110fe565b505050565b6107e683838360405180602001604052806000815250610a2a565b505050565b6000806107f7836113f8565b9050600073ffffffffffffffffffffffffffffffffffffffff168173ffffffffffffffffffffffffffffffffffffffff161415610869576040517f08c379a00000000000000000000000000000000000000000000000000000000081526004016108609061297a565b60405180910390fd5b80915050919050565b60008073ffffffffffffffffffffffffffffffffffffffff168273ffffffffffffffffffffffffffffffffffffffff1614156108e3576040517f08c379a00000000000000000000000000000000000000000000000000000000081526004016108da906128fa565b60405180910390fd5b600360008373ffffffffffffffffffffffffffffffffffffffff1673ffffffffffffffffffffffffffffffffffffffff168152602001908152602001600020549050919050565b610932610feb565b61093c6000611435565b565b6000610948610feb565b81600a8190555060019050919050565b6000600760009054906101000a900473ffffffffffffffffffffffffffffffffffffffff16905090565b60606001805461099190612bff565b80601f01602080910402602001604051908101604052809291908181526020018280546109bd90612bff565b8015610a0a5780601f106109df57610100808354040283529160200191610a0a565b820191906000526020600020905b8154815290600101906020018083116109ed57829003601f168201915b5050505050905090565b610a26610a1f610f2a565b83836114fb565b5050565b610a3b610a35610f2a565b83611069565b610a7a576040517f08c379a0000000000000000000000000000000000000000000000000000000008152600401610a719061281a565b60405180910390fd5b610a8684848484611668565b50505050565b6000610a96610feb565b600a54905090565b6060610aa982610edf565b6000600660008481526020019081526020016000208054610ac990612bff565b80601f0160208091040260200160405190810160405280929190818152602001828054610af590612bff565b8015610b425780601f10610b1757610100808354040283529160200191610b42565b820191906000526020600020905b815481529060010190602001808311610b2557829003601f168201915b505050505090506000610b536116c4565b9050600081511415610b69578192505050610bac565b600082511115610b9e578082604051602001610b8692919061271b565b60405160208183030381529060405292505050610bac565b610ba7846116db565b925050505b919050565b6000600560008473ffffffffffffffffffffffffffffffffffffffff1673ffffffffffffffffffffffffffffffffffffffff16815260200190815260200160002060008373ffffffffffffffffffffffffffffffffffffffff1673ffffffffffffffffffffffffffffffffffffffff16815260200190815260200160002060009054906101000a900460ff16905092915050565b6000610c4f610feb565b600a54600960009054906101000a900473ffffffffffffffffffffffffffffffffffffffff1673ffffffffffffffffffffffffffffffffffffffff166370a08231856040518263ffffffff1660e01b8152600401610cad919061273f565b60206040518083038186803b158015610cc557600080fd5b505afa158015610cd9573d6000803e3d6000fd5b505050506040513d601f19601f82011682018060405250810190610cfd9190612434565b11610d0757600080fd5b600960009054906101000a900473ffffffffffffffffffffffffffffffffffffffff1673ffffffffffffffffffffffffffffffffffffffff166323b872dd8433600a546040518463ffffffff1660e01b8152600401610d689392919061275a565b602060405180830381600087803b158015610d8257600080fd5b505af1158015610d96573d6000803e3d6000fd5b505050506040513d601f19601f82011682018060405250810190610dba9190612380565b50610dc56008611743565b6000610dd16008611759565b9050610ddd8482611767565b610de78184611985565b8091505092915050565b610df9610feb565b600073ffffffffffffffffffffffffffffffffffffffff168173ffffffffffffffffffffffffffffffffffffffff161415610e69576040517f08c379a0000000000000000000000000000000000000000000000000000000008152600401610e609061285a565b60405180910390fd5b610e7281611435565b50565b60007f01ffc9a7000000000000000000000000000000000000000000000000000000007bffffffffffffffffffffffffffffffffffffffffffffffffffffffff1916827bffffffffffffffffffffffffffffffffffffffffffffffffffffffff1916149050919050565b610ee8816119f9565b610f27576040517f08c379a0000000000000000000000000000000000000000000000000000000008152600401610f1e9061297a565b60405180910390fd5b50565b600033905090565b816004600083815260200190815260200160002060006101000a81548173ffffffffffffffffffffffffffffffffffffffff021916908373ffffffffffffffffffffffffffffffffffffffff160217905550808273ffffffffffffffffffffffffffffffffffffffff16610fa5836107eb565b73ffffffffffffffffffffffffffffffffffffffff167f8c5be1e5ebec7d5bd14f71427d1e84f3dd0314c0f7b2291e5b200ac8c7c3b92560405160405180910390a45050565b610ff3610f2a565b73ffffffffffffffffffffffffffffffffffffffff16611011610958565b73ffffffffffffffffffffffffffffffffffffffff1614611067576040517f08c379a000000000000000000000000000000000000000000000000000000000815260040161105e9061295a565b60405180910390fd5b565b600080611075836107eb565b90508073ffffffffffffffffffffffffffffffffffffffff168473ffffffffffffffffffffffffffffffffffffffff1614806110b757506110b68185610bb1565b5b806110f557508373ffffffffffffffffffffffffffffffffffffffff166110dd8461057f565b73ffffffffffffffffffffffffffffffffffffffff16145b91505092915050565b8273ffffffffffffffffffffffffffffffffffffffff1661111e826107eb565b73ffffffffffffffffffffffffffffffffffffffff1614611174576040517f08c379a000000000000000000000000000000000000000000000000000000000815260040161116b9061287a565b60405180910390fd5b600073ffffffffffffffffffffffffffffffffffffffff168273ffffffffffffffffffffffffffffffffffffffff1614156111e4576040517f08c379a00000000000000000000000000000000000000000000000000000000081526004016111db906128ba565b60405180910390fd5b6111f18383836001611a3a565b8273ffffffffffffffffffffffffffffffffffffffff16611211826107eb565b73ffffffffffffffffffffffffffffffffffffffff1614611267576040517f08c379a000000000000000000000000000000000000000000000000000000000815260040161125e9061287a565b60405180910390fd5b6004600082815260200190815260200160002060006101000a81549073ffffffffffffffffffffffffffffffffffffffff02191690556001600360008573ffffffffffffffffffffffffffffffffffffffff1673ffffffffffffffffffffffffffffffffffffffff168152602001908152602001600020600082825403925050819055506001600360008473ffffffffffffffffffffffffffffffffffffffff1673ffffffffffffffffffffffffffffffffffffffff16815260200190815260200160002060008282540192505081905550816002600083815260200190815260200160002060006101000a81548173ffffffffffffffffffffffffffffffffffffffff021916908373ffffffffffffffffffffffffffffffffffffffff160217905550808273ffffffffffffffffffffffffffffffffffffffff168473ffffffffffffffffffffffffffffffffffffffff167fddf252ad1be2c89b69c2b068fc378daa952ba7f163c4a11628f55a4df523b3ef60405160405180910390a46113f38383836001611b60565b505050565b60006002600083815260200190815260200160002060009054906101000a900473ffffffffffffffffffffffffffffffffffffffff169050919050565b6000600760009054906101000a900473ffffffffffffffffffffffffffffffffffffffff16905081600760006101000a81548173ffffffffffffffffffffffffffffffffffffffff021916908373ffffffffffffffffffffffffffffffffffffffff1602179055508173ffffffffffffffffffffffffffffffffffffffff168173ffffffffffffffffffffffffffffffffffffffff167f8be0079c531659141344cd1fd0a4f28419497f9722a3daafe3b4186f6b6457e060405160405180910390a35050565b8173ffffffffffffffffffffffffffffffffffffffff168373ffffffffffffffffffffffffffffffffffffffff16141561156a576040517f08c379a0000000000000000000000000000000000000000000000000000000008152600401611561906128da565b60405180910390fd5b80600560008573ffffffffffffffffffffffffffffffffffffffff1673ffffffffffffffffffffffffffffffffffffffff16815260200190815260200160002060008473ffffffffffffffffffffffffffffffffffffffff1673ffffffffffffffffffffffffffffffffffffffff16815260200190815260200160002060006101000a81548160ff0219169083151502179055508173ffffffffffffffffffffffffffffffffffffffff168373ffffffffffffffffffffffffffffffffffffffff167f17307eab39ab6107e8899845ad3d59bd9653f200f220920489ca2b5937696c318360405161165b91906127dd565b60405180910390a3505050565b6116738484846110fe565b61167f84848484611b66565b6116be576040517f08c379a00000000000000000000000000000000000000000000000000000000081526004016116b59061283a565b60405180910390fd5b50505050565b606060405180602001604052806000815250905090565b60606116e682610edf565b60006116f06116c4565b90506000815111611710576040518060200160405280600081525061173b565b8061171a84611cfd565b60405160200161172b92919061271b565b6040516020818303038152906040525b915050919050565b6001816000016000828254019250508190555050565b600081600001549050919050565b600073ffffffffffffffffffffffffffffffffffffffff168273ffffffffffffffffffffffffffffffffffffffff1614156117d7576040517f08c379a00000000000000000000000000000000000000000000000000000000081526004016117ce9061293a565b60405180910390fd5b6117e0816119f9565b15611820576040517f08c379a00000000000000000000000000000000000000000000000000000000081526004016118179061289a565b60405180910390fd5b61182e600083836001611a3a565b611837816119f9565b15611877576040517f08c379a000000000000000000000000000000000000000000000000000000000815260040161186e9061289a565b60405180910390fd5b6001600360008473ffffffffffffffffffffffffffffffffffffffff1673ffffffffffffffffffffffffffffffffffffffff16815260200190815260200160002060008282540192505081905550816002600083815260200190815260200160002060006101000a81548173ffffffffffffffffffffffffffffffffffffffff021916908373ffffffffffffffffffffffffffffffffffffffff160217905550808273ffffffffffffffffffffffffffffffffffffffff16600073ffffffffffffffffffffffffffffffffffffffff167fddf252ad1be2c89b69c2b068fc378daa952ba7f163c4a11628f55a4df523b3ef60405160405180910390a4611981600083836001611b60565b5050565b61198e826119f9565b6119cd576040517f08c379a00000000000000000000000000000000000000000000000000000000081526004016119c49061291a565b60405180910390fd5b806006600084815260200190815260200160002090805190602001906119f4929190611f4b565b505050565b60008073ffffffffffffffffffffffffffffffffffffffff16611a1b836113f8565b73ffffffffffffffffffffffffffffffffffffffff1614159050919050565b6001811115611b5a57600073ffffffffffffffffffffffffffffffffffffffff168473ffffffffffffffffffffffffffffffffffffffff1614611ace5780600360008673ffffffffffffffffffffffffffffffffffffffff1673ffffffffffffffffffffffffffffffffffffffff1681526020019081526020016000206000828254611ac69190612b15565b925050819055505b600073ffffffffffffffffffffffffffffffffffffffff168373ffffffffffffffffffffffffffffffffffffffff1614611b595780600360008573ffffffffffffffffffffffffffffffffffffffff1673ffffffffffffffffffffffffffffffffffffffff1681526020019081526020016000206000828254611b519190612abf565b925050819055505b5b50505050565b50505050565b6000611b878473ffffffffffffffffffffffffffffffffffffffff16611dd5565b15611cf0578373ffffffffffffffffffffffffffffffffffffffff1663150b7a02611bb0610f2a565b8786866040518563ffffffff1660e01b8152600401611bd29493929190612791565b602060405180830381600087803b158015611bec57600080fd5b505af1925050508015611c1d57506040513d601f19601f82011682018060405250810190611c1a91906123da565b60015b611ca0573d8060008114611c4d576040519150601f19603f3d011682016040523d82523d6000602084013e611c52565b606091505b50600081511415611c98576040517f08c379a0000000000000000000000000000000000000000000000000000000008152600401611c8f9061283a565b60405180910390fd5b805181602001fd5b63150b7a0260e01b7bffffffffffffffffffffffffffffffffffffffffffffffffffffffff1916817bffffffffffffffffffffffffffffffffffffffffffffffffffffffff191614915050611cf5565b600190505b949350505050565b606060006001611d0c84611df8565b01905060008167ffffffffffffffff811115611d2b57611d2a612cef565b5b6040519080825280601f01601f191660200182016040528015611d5d5781602001600182028036833780820191505090505b509050600082602001820190505b600115611dca578080600190039150507f3031323334353637383961626364656600000000000000000000000000000000600a86061a8153600a8581611db457611db3612c91565b5b0494506000851415611dc557611dca565b611d6b565b819350505050919050565b6000808273ffffffffffffffffffffffffffffffffffffffff163b119050919050565b600080600090507a184f03e93ff9f4daa797ed6e38ed64bf6a1f0100000000000000008310611e56577a184f03e93ff9f4daa797ed6e38ed64bf6a1f0100000000000000008381611e4c57611e4b612c91565b5b0492506040810190505b6d04ee2d6d415b85acef81000000008310611e93576d04ee2d6d415b85acef81000000008381611e8957611e88612c91565b5b0492506020810190505b662386f26fc100008310611ec257662386f26fc100008381611eb857611eb7612c91565b5b0492506010810190505b6305f5e1008310611eeb576305f5e1008381611ee157611ee0612c91565b5b0492506008810190505b6127108310611f10576127108381611f0657611f05612c91565b5b0492506004810190505b60648310611f335760648381611f2957611f28612c91565b5b0492506002810190505b600a8310611f42576001810190505b80915050919050565b828054611f5790612bff565b90600052602060002090601f016020900481019282611f795760008555611fc0565b82601f10611f9257805160ff1916838001178555611fc0565b82800160010185558215611fc0579182015b82811115611fbf578251825591602001919060010190611fa4565b5b509050611fcd9190611fd1565b5090565b5b80821115611fea576000816000905550600101611fd2565b5090565b6000612001611ffc84612a1a565b6129f5565b90508281526020810184848401111561201d5761201c612d23565b5b612028848285612bbd565b509392505050565b600061204361203e84612a4b565b6129f5565b90508281526020810184848401111561205f5761205e612d23565b5b61206a848285612bbd565b509392505050565b600081359050612081816130d7565b92915050565b600081359050612096816130ee565b92915050565b6000815190506120ab816130ee565b92915050565b6000813590506120c081613105565b92915050565b6000815190506120d581613105565b92915050565b600082601f8301126120f0576120ef612d1e565b5b8135612100848260208601611fee565b91505092915050565b600082601f83011261211e5761211d612d1e565b5b813561212e848260208601612030565b91505092915050565b6000813590506121468161311c565b92915050565b60008151905061215b8161311c565b92915050565b60006020828403121561217757612176612d2d565b5b600061218584828501612072565b91505092915050565b600080604083850312156121a5576121a4612d2d565b5b60006121b385828601612072565b92505060206121c485828601612072565b9150509250929050565b6000806000606084860312156121e7576121e6612d2d565b5b60006121f586828701612072565b935050602061220686828701612072565b925050604061221786828701612137565b9150509250925092565b6000806000806080858703121561223b5761223a612d2d565b5b600061224987828801612072565b945050602061225a87828801612072565b935050604061226b87828801612137565b925050606085013567ffffffffffffffff81111561228c5761228b612d28565b5b612298878288016120db565b91505092959194509250565b600080604083850312156122bb576122ba612d2d565b5b60006122c985828601612072565b92505060206122da85828601612087565b9150509250929050565b600080604083850312156122fb576122fa612d2d565b5b600061230985828601612072565b925050602083013567ffffffffffffffff81111561232a57612329612d28565b5b61233685828601612109565b9150509250929050565b6000806040838503121561235757612356612d2d565b5b600061236585828601612072565b925050602061237685828601612137565b9150509250929050565b60006020828403121561239657612395612d2d565b5b60006123a48482850161209c565b91505092915050565b6000602082840312156123c3576123c2612d2d565b5b60006123d1848285016120b1565b91505092915050565b6000602082840312156123f0576123ef612d2d565b5b60006123fe848285016120c6565b91505092915050565b60006020828403121561241d5761241c612d2d565b5b600061242b84828501612137565b91505092915050565b60006020828403121561244a57612449612d2d565b5b60006124588482850161214c565b91505092915050565b61246a81612b49565b82525050565b61247981612b5b565b82525050565b600061248a82612a7c565b6124948185612a92565b93506124a4818560208601612bcc565b6124ad81612d32565b840191505092915050565b60006124c382612a87565b6124cd8185612aa3565b93506124dd818560208601612bcc565b6124e681612d32565b840191505092915050565b60006124fc82612a87565b6125068185612ab4565b9350612516818560208601612bcc565b80840191505092915050565b600061252f602d83612aa3565b915061253a82612d43565b604082019050919050565b6000612552603283612aa3565b915061255d82612d92565b604082019050919050565b6000612575602683612aa3565b915061258082612de1565b604082019050919050565b6000612598602583612aa3565b91506125a382612e30565b604082019050919050565b60006125bb601c83612aa3565b91506125c682612e7f565b602082019050919050565b60006125de602483612aa3565b91506125e982612ea8565b604082019050919050565b6000612601601983612aa3565b915061260c82612ef7565b602082019050919050565b6000612624602983612aa3565b915061262f82612f20565b604082019050919050565b6000612647602e83612aa3565b915061265282612f6f565b604082019050919050565b600061266a602083612aa3565b915061267582612fbe565b602082019050919050565b600061268d602083612aa3565b915061269882612fe7565b602082019050919050565b60006126b0601883612aa3565b91506126bb82613010565b602082019050919050565b60006126d3602183612aa3565b91506126de82613039565b604082019050919050565b60006126f6603d83612aa3565b915061270182613088565b604082019050919050565b61271581612bb3565b82525050565b600061272782856124f1565b915061273382846124f1565b91508190509392505050565b60006020820190506127546000830184612461565b92915050565b600060608201905061276f6000830186612461565b61277c6020830185612461565b612789604083018461270c565b949350505050565b60006080820190506127a66000830187612461565b6127b36020830186612461565b6127c0604083018561270c565b81810360608301526127d2818461247f565b905095945050505050565b60006020820190506127f26000830184612470565b92915050565b6000602082019050818103600083015261281281846124b8565b905092915050565b6000602082019050818103600083015261283381612522565b9050919050565b6000602082019050818103600083015261285381612545565b9050919050565b6000602082019050818103600083015261287381612568565b9050919050565b600060208201905081810360008301526128938161258b565b9050919050565b600060208201905081810360008301526128b3816125ae565b9050919050565b600060208201905081810360008301526128d3816125d1565b9050919050565b600060208201905081810360008301526128f3816125f4565b9050919050565b6000602082019050818103600083015261291381612617565b9050919050565b600060208201905081810360008301526129338161263a565b9050919050565b600060208201905081810360008301526129538161265d565b9050919050565b6000602082019050818103600083015261297381612680565b9050919050565b60006020820190508181036000830152612993816126a3565b9050919050565b600060208201905081810360008301526129b3816126c6565b9050919050565b600060208201905081810360008301526129d3816126e9565b9050919050565b60006020820190506129ef600083018461270c565b92915050565b60006129ff612a10565b9050612a0b8282612c31565b919050565b6000604051905090565b600067ffffffffffffffff821115612a3557612a34612cef565b5b612a3e82612d32565b9050602081019050919050565b600067ffffffffffffffff821115612a6657612a65612cef565b5b612a6f82612d32565b9050602081019050919050565b600081519050919050565b600081519050919050565b600082825260208201905092915050565b600082825260208201905092915050565b600081905092915050565b6000612aca82612bb3565b9150612ad583612bb3565b9250827fffffffffffffffffffffffffffffffffffffffffffffffffffffffffffffffff03821115612b0a57612b09612c62565b5b828201905092915050565b6000612b2082612bb3565b9150612b2b83612bb3565b925082821015612b3e57612b3d612c62565b5b828203905092915050565b6000612b5482612b93565b9050919050565b60008115159050919050565b60007fffffffff0000000000000000000000000000000000000000000000000000000082169050919050565b600073ffffffffffffffffffffffffffffffffffffffff82169050919050565b6000819050919050565b82818337600083830152505050565b60005b83811015612bea578082015181840152602081019050612bcf565b83811115612bf9576000848401525b50505050565b60006002820490506001821680612c1757607f821691505b60208210811415612c2b57612c2a612cc0565b5b50919050565b612c3a82612d32565b810181811067ffffffffffffffff82111715612c5957612c58612cef565b5b80604052505050565b7f4e487b7100000000000000000000000000000000000000000000000000000000600052601160045260246000fd5b7f4e487b7100000000000000000000000000000000000000000000000000000000600052601260045260246000fd5b7f4e487b7100000000000000000000000000000000000000000000000000000000600052602260045260246000fd5b7f4e487b7100000000000000000000000000000000000000000000000000000000600052604160045260246000fd5b600080fd5b600080fd5b600080fd5b600080fd5b6000601f19601f8301169050919050565b7f4552433732313a2063616c6c6572206973206e6f7420746f6b656e206f776e6560008201527f72206f7220617070726f76656400000000000000000000000000000000000000602082015250565b7f4552433732313a207472616e7366657220746f206e6f6e20455243373231526560008201527f63656976657220696d706c656d656e7465720000000000000000000000000000602082015250565b7f4f776e61626c653a206e6577206f776e657220697320746865207a65726f206160008201527f6464726573730000000000000000000000000000000000000000000000000000602082015250565b7f4552433732313a207472616e736665722066726f6d20696e636f72726563742060008201527f6f776e6572000000000000000000000000000000000000000000000000000000602082015250565b7f4552433732313a20746f6b656e20616c7265616479206d696e74656400000000600082015250565b7f4552433732313a207472616e7366657220746f20746865207a65726f2061646460008201527f7265737300000000000000000000000000000000000000000000000000000000602082015250565b7f4552433732313a20617070726f766520746f2063616c6c657200000000000000600082015250565b7f4552433732313a2061646472657373207a65726f206973206e6f74206120766160008201527f6c6964206f776e65720000000000000000000000000000000000000000000000602082015250565b7f45524337323155524953746f726167653a2055524920736574206f66206e6f6e60008201527f6578697374656e7420746f6b656e000000000000000000000000000000000000602082015250565b7f4552433732313a206d696e7420746f20746865207a65726f2061646472657373600082015250565b7f4f776e61626c653a2063616c6c6572206973206e6f7420746865206f776e6572600082015250565b7f4552433732313a20696e76616c696420746f6b656e2049440000000000000000600082015250565b7f4552433732313a20617070726f76616c20746f2063757272656e74206f776e6560008201527f7200000000000000000000000000000000000000000000000000000000000000602082015250565b7f4552433732313a20617070726f76652063616c6c6572206973206e6f7420746f60008201527f6b656e206f776e6572206f7220617070726f76656420666f7220616c6c000000602082015250565b6130e081612b49565b81146130eb57600080fd5b50565b6130f781612b5b565b811461310257600080fd5b50565b61310e81612b67565b811461311957600080fd5b50565b61312581612bb3565b811461313057600080fd5b5056fea2646970667358221220f132c880b36767c750d5d3f579f8c835c2b7f4c250370d769c7714ff93fbcb5d64736f6c63430008070033",
  "immutableReferences": {},
  "source": "//Contract based on [<https://docs.openzeppelin.com/contracts/3.x/erc721>](<https://docs.openzeppelin.com/contracts/3.x/erc721>)\n// SPDX-License-Identifier: MIT\npragma solidity ^0.8.7;\n\nimport \"@openzeppelin/contracts/token/ERC721/ERC721.sol\";\nimport \"@openzeppelin/contracts/utils/Counters.sol\";\nimport \"@openzeppelin/contracts/access/Ownable.sol\";\nimport \"@openzeppelin/contracts/token/ERC721/extensions/ERC721URIStorage.sol\";\nimport \"@openzeppelin/contracts/token/ERC20/IERC20.sol\";\nimport \"./POSTToken.sol\";\n\ncontract MyNFTs is ERC721URIStorage, Ownable {\n    using Counters for Counters.Counter;\n    Counters.Counter private _tokenIds;\n    POSTToken token;\n    uint256 nftPrice;\n\n    constructor() ERC721(\"MyNFTs\", \"MNFT\") {\n        nftPrice = 100e18;\n    }\n\n    function mintNFT(address recipient, string memory tokenURI) public onlyOwner returns (uint256) {\n        require(token.balanceOf(recipient) > nftPrice);\n\n        token.transferFrom(recipient, msg.sender, nftPrice);\n        \n        _tokenIds.increment();\n        uint256 newItemId = _tokenIds.current();\n        _mint(recipient, newItemId);\n        _setTokenURI(newItemId, tokenURI);\n\n        return newItemId;\n    }\n\n    function setToken (address tokenAddress) public onlyOwner returns (bool) {\n        require(tokenAddress != address(0x0));\n        token = POSTToken(tokenAddress);\n        return true;\n    }\n\n    function setNftPrice (uint256 value) public onlyOwner returns (bool) {\n        nftPrice = value;\n        return true;\n    }\n\n    function getNftPrice () public onlyOwner returns (uint256) {\n        return nftPrice;\n    }\n}",
  "sourcePath": "/Users/baekhun/Desktop/beb-07-second-PostMelon/contract/contracts/MyNFT.sol",
  "compiler": {
    "name": "solc",
    "version": "0.8.7+commit.e28d00a7.Emscripten.clang"
  },
  "schemaVersion": "3.4.11",
  "updatedAt": "2023-01-09T01:31:26.540Z",
  "networkType": "ethereum",
  "devdoc": {
    "kind": "dev",
    "methods": {
      "approve(address,uint256)": {
        "details": "See {IERC721-approve}."
      },
      "balanceOf(address)": {
        "details": "See {IERC721-balanceOf}."
      },
      "getApproved(uint256)": {
        "details": "See {IERC721-getApproved}."
      },
      "isApprovedForAll(address,address)": {
        "details": "See {IERC721-isApprovedForAll}."
      },
      "name()": {
        "details": "See {IERC721Metadata-name}."
      },
      "owner()": {
        "details": "Returns the address of the current owner."
      },
      "ownerOf(uint256)": {
        "details": "See {IERC721-ownerOf}."
      },
      "renounceOwnership()": {
        "details": "Leaves the contract without owner. It will not be possible to call `onlyOwner` functions anymore. Can only be called by the current owner. NOTE: Renouncing ownership will leave the contract without an owner, thereby removing any functionality that is only available to the owner."
      },
      "safeTransferFrom(address,address,uint256)": {
        "details": "See {IERC721-safeTransferFrom}."
      },
      "safeTransferFrom(address,address,uint256,bytes)": {
        "details": "See {IERC721-safeTransferFrom}."
      },
      "setApprovalForAll(address,bool)": {
        "details": "See {IERC721-setApprovalForAll}."
      },
      "supportsInterface(bytes4)": {
        "details": "See {IERC165-supportsInterface}."
      },
      "symbol()": {
        "details": "See {IERC721Metadata-symbol}."
      },
      "tokenURI(uint256)": {
        "details": "See {IERC721Metadata-tokenURI}."
      },
      "transferFrom(address,address,uint256)": {
        "details": "See {IERC721-transferFrom}."
      },
      "transferOwnership(address)": {
        "details": "Transfers ownership of the contract to a new account (`newOwner`). Can only be called by the current owner."
      }
    },
    "version": 1
  },
  "userdoc": {
    "kind": "user",
    "methods": {},
    "version": 1
  }
}